:020000022000DC
:10600000000001205D630200456302004763020057
:10601000496302004B6302004D6302000000000070
:106020000000000000000000000000004F630200BC
:106030005163020000000000536302005563020038
:106040003188020057630200B58B020057630200DB
:106050005763020057630200698A02005763020017
:106060005763020057630200576302005763020040
:106070005763020057630200576302005763020030
:1060800057630200AD7702005763020057630200B6
:10609000576302005763020015A90200576302000C
:1060A0005763020057630200576302005763020000
:1060B0005763020057630200000000000000000068
:1060C00057630200576302005763020057630200E0
:1060D000576302005763020057630200000000008C
:1060E00000000000000000000000000000000000B0
:1060F00000000000000000000000000000000000A0
:10610000000000000000000000000000000000008F
:10611000000000000000000000000000000000007F
:10612000000000000000000000000000000000006F
:10613000000000000000000000000000000000005F
:10614000000000000000000000000000000000004F
:10615000000000000000000000000000000000003F
:10616000000000000000000000000000000000002F
:10617000000000000000000000000000000000001F
:10618000000000000000000000000000000000000F
:1061900000000000000000000000000000000000FF
:1061A00000000000000000000000000000000000EF
:1061B00000000000000000000000000000000000DF
:1061C00000000000000000000000000000000000CF
:1061D00000000000000000000000000000000000BF
:1061E00000000000000000000000000000000000AF
:1061F000000000000000000000000000000000009F
:10620000314932480A1A02D0072291438D4630495B
:1062100030480A1A06D00722914381F309880222E6
:1062200082F314882C482D492D4A00F03CF82D4863
:106230002D492E4A00F037F82D482E492E4A00F0FD
:1062400032F82E482E492F4A00F02DF82E482F49BB
:106250002F4A00F028F82F482F49304A00F023F841
:106260002F483049304A00F01EF8304830490022AB
:1062700000F024F82F483049002200F01FF82F4A80
:1062800090471F481F49884205D00268043003B474
:10629000904703BCF7E700208646EC46002000212B
:1062A000274A9047FEE7884207D0521A05D0037864
:1062B00001300B700131013AF9D17047884202D0A8
:1062C00002700130FAE770470000012000E0002072
:1062D00000000120000001209CBA0200B81D00202F
:1062E00010240020B8630200B86302003CAC020036
:1062F0009CBA0200B81D0020B81D002088AD020025
:1063000088AD020088AD020088AD020088AD0200B1
:1063100088AD020088AD020088AD02009CBA020080
:10632000F4C00200102400201024002010240020BB
:1063300032310020343100203431002085630200E6
:10634000E5960200FEE7FEE7FEE7FEE7FEE7FEE772
:10635000FEE7FEE7FEE7FEE700F002B8FFF7FCBF4E
:106360000F484FF00701884385460E4880470E4886
:10637000016841F470010160BFF34F8FBFF36F8F6D
:10638000FFF73EBF09480A490A4A884207D0521A15
:1063900005D0037801300B700131013AF9D1704713
:1063A000000001207582020088ED00E088AD020047
:0863B000B81D0020B81D0020FB
:1063B8007047000007B5044B0093044A402300F0DF
:1063C80032F803B05DF804FBD96302001124002001
:1063D8002DE9F84388461446B2B10F4B0F4E0325FA
:1063E800002743F00109224608EB0701002003F0CB
:1063F80041FA0744241A48B933782BB14FF47A404C
:10640800C847013D02D13570BDE8F88301233370D8
:10641800002CE8D1F8E700BF90AD0200102400205E
:10642800704703F057BAF0B595B01D4616460846B2
:106438000C4601F065FD1A9B0D93CDE90865002512
:106448002B46082205A920460A958DF82C500C9554
:1064580001F072FD079B0293069B03939DF814308D
:106468008DF8115003F00302012A1DD1BDF8142044
:10647800059DC3F3C203C2F383168DF81030B20032
:1064880008230EA9204601F057FDC5F3952508AB52
:106498000093324602AB0EA9284600F0C5FB204601
:1064A80001F032FD15B0F0BD022AF8D1BDF8165042
:1064B800C3F3C203C5F389158DF810300827082DDA
:1064C8002E4628BF08263B4632460EA9204601F034
:1064D80033FDAD1B08AB02AA31460EA8374400F0C5
:1064E80007FC002DEBD1DAE7014B01221A70704747
:1064F800922400207047000070B50E4D06460FCD5F
:1065080088B06C460FC495E80F00002E84E80F0091
:10651800094A0A484FF0060308BF0022694600935B
:1065280002F00AF908B100F09BFD054B1E7008B097
:1065380070BD00BFA4AD0200F1640200B81D0020C8
:106548005124002007B5044B0093044A4023FFF769
:106558006AFF03B05DF804FB69650200522400205D
:1065680038B50D480D4C0E4D002323700378EB5CB5
:10657800D2B263B1043002F0A7FF08B100F070FD99
:10658800084B1A7812B12378002BFBD038BD0C3099
:1065980002F048FDF1E700BFB81D0020922400205A
:1065A800102B00205124002008B50848084A037819
:1065B800D35C3BB1043002F0EBFEBDE8084000209C
:1065C800FFF79ABF0C3002F0B7FCF6E7B81D0020C1
:1065D800102B00200120FFF78FBF000038B50A4DAF
:1065E800FFF71FFF0421284600F088FA074B012413
:1065F8005C71FFF7EFFF042105F1100000F07EFA4F
:10660800034B5C7138BD00BF68AD0200CC1D002093
:10661800D41D0020037813F0040216D003F00303FE
:10662800012B03D0022B09D0012070470A6800888B
:106638000232C0F3831002440A60F5E70B6842880F
:10664800023303EB92130B60EEE71046704700002D
:106658002DE9F04FDFF81CA187B00F460023044650
:10666800861C0DF1070015468DF8073000F02CFF49
:10667800DAF804203A60DAF8083003F580739B1AD8
:106688000AF21C470AF583690AF21448B3421AD37E
:106698000020002D69D004F00F039B0143F005038F
:1066A80063F30F00DAF80430DAB2033233444AF8FD
:1066B80022009DF80700CAF8043000F029FF0120E5
:1066C80007B0BDE8F08F0121384601F048F9484687
:1066D80001F05DF9404601F05AF9DAF80800029035
:1066E800C0B203300AEB800002A9FFF793FF029BB8
:1066F80030BBDAB20AEB8202D16803919A1C0133EB
:10670800DBB20AEB83030292D3F80CB001F0030367
:10671800012B22D0022B15D08346404601F03AF9CE
:1067280010B1029BCAF808305946384601F017F9EB
:10673800DAF80830DAF8042003F580739B1AA5E725
:10674800D8B2CEE7BDF80E30C3F3891303334FEA4E
:106758001B4B02EB93030293DFE7BDF80C30C3F346
:1067680083134FEA1B4B1344F5E7A40544F00600D6
:1067780098E700BF64250020064B074810B50022A3
:106788001A7001F076FB044610B9044801F0D7FCF2
:10679800204610BD6425002014AD020008AE02009A
:1067A80030B50A4C71B10A4A0A49121BD2080023B3
:1067B8009A4201D1002030BD31F82350854202D0E1
:1067C8000133F5E7034654F83300F4E77CAC0200E4
:1067D80014AD0200B81D0020094B013903EBC000BD
:1067E800032909D8DFE801F00A02040604207047EB
:1067F8000079704740797047002070470220704741
:106808007CAC020070470000034BD3E90130C31A87
:1068180058425841704700BF642500202DE9F041D7
:1068280086B0FFF7F1FF0546002840F0ED80774C71
:10683800C4F81804BFF34F8FA3680293DBB2033385
:1068480004EB830002A9FFF7E5FE029B18B1D4F818
:106858001824002A5AD0DAB2991C013304EB8202B8
:10686800DBB204EB8303D268DB68049302F0030312
:10687800022B0392029154D1BDF80E306448C3F341
:106888008917502F3E4628BF502606F1080166F3A7
:106898008F13C1F30901ADF80E3001F002FB054674
:1068A800002800F09C8001F02BFB0023082203A99C
:1068B800284601F037FB0299CB43DBB20133C9B25A
:1068C8000331B6EB830F4FEA830204EB810125D92C
:1068D8005FFA82F80823A6EB0806284601F022FB97
:1068E800F6B208F108034B4903F0FC033246284688
:1068F80001F018FB029B033703EB97070297D4F8C4
:106908001834002B43D1D4F8106453E062689A42DB
:1069180094D8A260284606B0BDE8F0810823324624
:10692800E5E7012B5BD1BDF80C303948C3F383117F
:10693800062928BF062161F38913023101F00F01EE
:106948008900ADF80C3001F0ACFA0546002846D0B5
:1069580001F0D6FA0023082203A9284601F0E2FA3A
:106968000026BDF80C20C2F38312B300964203F14F
:106978000803C4D202994A1CC9B20331029204EB3B
:1069880081010422284601F0CDFA0136E9E72846BC
:1069980001F0BAFAFFF738FF80F00100C5B2B9E795
:1069A800F3685B7923B1336829461B6830469847FA
:1069B800F3681E68002EF3D1284601F0A5FA0DF100
:1069C80007008DF8076000F07FFDD4F818340BB984
:1069D800029BA3609DF8070000F09AFDDAE7D4F85F
:1069E800104454B90C4B0D480D49C01AC008000496
:1069F80040F0020000F05EF8CCE7236820469B6870
:106A08009847E3681C68ECE7002583E764250020C5
:106A180014AD0200702500207CAC0200A4AC02007A
:106A2800F1AD02002DE9F34704460E46924601A94E
:106A3800012218469946FFF70BFE1C4F10B3019D23
:106A48004FF00008AA1CC84508EB020125D11848D8
:106A5800002100F055FF80F31000000440EA1440C4
:106A6800E4006B1C04F03804DBB2EDB244F001041E
:106A780007EB8303033544EA881444EA8624D86084
:106A880047F825403B781BB1FFF7C8FE0028FBD12B
:106A9800FFF7B8FE02B0BDE8F087C9B207EB810185
:106AA8005AF82830CB6008F10108CCE764250020AB
:106AB8008029002000231A46FFF7B4BF07B5012339
:106AC800019201AAFFF7AEFF03B05DF804FB07B51A
:106AD800CDE9002302236A46FFF7A4FF03B05DF85F
:106AE80004FB1FB5CDE90123069B039301AA0323E9
:106AF800FFF798FF05B05DF804FB000030B50F4CB8
:106B0800D4F8102403460020114631B9D968087119
:106B18004AB9C4F810340A6030BDC9680D79854295
:106B280006D00968F1E7D26814680C601360F3E7CF
:106B380001300A28E8D14FF0FF30EDE76425002046
:106B480038B5084B0125D3F810441D7004B938BD79
:106B5800E3685D71236820465B689847E3681C68B2
:106B6800F4E700BF6425002030B5C38885B004462B
:106B78000D4633B1144A00921449154A284600F0CC
:106B88006CFF217A05291DD0637A4BB1A088FFF7E5
:106B980023FE104B104953F82020284600F05DFFD3
:106BA800227A0E4BA08853F8222003920021FFF787
:106BB800F7FD039A0A490346284605B0BDE8304068
:106BC80000F04BBF05B030BD34AE02001CAE020071
:106BD80014AE0200A0AE020039AE0200C4AE02003C
:106BE8003CAE020007B503460846197A052911D0BC
:106BF8005B7A2BB1094A0A49019000F02EFF0198EF
:106C08000849019000F029FF019803B05DF804EBF2
:106C180000F018BF002AF8D0F2E700BF34AE020037
:106C280039AE020031AE02002DE9F04385B01F46AF
:106C38000C9D002395F80C902B7306460C46904645
:106C480029463846FFF790FFB8F1060F09D8DFE864
:106C580008F00412181F283340003146284600F077
:106C6800FCFE002229463846FFF7BCFF85F80C9049
:106C780005B0BDE8F08322683146284600F0EDFEF5
:106C8800EFE7D4E900233146284600F0E6FEE8E7BE
:106C9800A36800933146D4E90023284600F0DDFEBE
:106CA800DFE7E3680193A36800933146D4E9002342
:106CB800284600F0D2FED4E723690293E3680193E3
:106CC800A36800933146D4E90023284600F0C5FEA6
:106CD800C7E76369039323690293E3680193A36891
:106CE80000933146D4E90023284600F0B6FEB8E701
:106CF80008292DE9F74F80460E4617461C463CD812
:106D0800002593F80C901D7319461046FFF72CFFC9
:106D1800DFF888A0DFF888B0AE4231D918F805202E
:106D28005946204600F099FE0135082DF4D119493D
:106D3800194DDFF870A0204600F08FFE4FF0000BD1
:106D48005E4522D918F80B207E2A05D810460192F4
:106D580003F086FE019A00B92E225146204600F023
:106D68007CFE0BF1010BBBF1080FE9D10122214692
:106D78003846FFF737FF84F80C9003B0BDE8F08F72
:106D88005146204600F069FECEE72946204600F02D
:106D980064FEE6E750AE02004EAE02004CAE0200C2
:106DA80046AE020052AE0200C30710B507D4F02366
:106DB800054A4008145C23401943115410BD0901C9
:106DC800C9B20F23F4E700BF302A002030B5094BC1
:106DD8001C78094B196800239C4202DC00221046EB
:106DE80030BD11F83350854201EBC302F7D00133AF
:106DF800F2E700BF1C2A0020402A002013B50446F1
:106E08000191FFF7E3FF38B143682BB101992046A0
:106E180002B0BDE81040184702B010BD034B04484B
:106E280019680022490800F03FBA00BF202A002054
:106E3800E01D002010B5C0B2FFF7C8FF0446007877
:106E480001F004FE63785A1E53425341834208D12D
:106E5800044BD3E90023134303D1BDE81040FFF7E7
:106E6800DDBF10BD282A002037B54308374AD35C58
:106E7800C2074CBF1B0903F00F0304460D46042B41
:106E880025D8DFE803F003262F3C4000F9B10121A3
:106E9800FFF78AFF00230DF107008DF8073000F097
:106EA80013FB0120A4F12003C4F12001284A20FA91
:106EB80001F100FA03F30B43A040D2E9004120435B
:106EC8000B43C2E900039DF8070000F021FB03B063
:106ED80030BD002918BF0221204603B0BDE830406C
:106EE800FFF762BF49B10321FFF75EFF012120468A
:106EF80003B0BDE83040FFF781BF0121ECE700296E
:106F0800E5D10421E8E709B10321E5E7FFF74CFFE4
:106F180029462046FFF772FF0DF107008DF807504C
:106F280000F0D2FA0120A4F12003C4F12001084A9C
:106F380020FA01F100FA03F30B43A040D2E9004123
:106F480024EA000021EA0303BBE700BF302A00203F
:106F5800282A00202DE9F041124E134F00243378DF
:106F6800A34208DC114BD3E90023134318D0BDE832
:106F7800F041FFF753BF3D6805EBC40815F834002E
:106F880001F064FD98F801305A1E53425341181A13
:106F98004142414115F83400FFF766FF0134DEE74E
:106FA800BDE8F0811C2A0020402A0020282A002061
:106FB800092AF7B505460C4616463ED901F0C4FC29
:106FC800E8B11F4B1F481D601F4B204F1C70204B02
:106FD800002110221E6003F0A8FD1E4B0020002196
:106FE800C3E90001013CE4B20326FF2C0DD11A4A83
:106FF8001A48002103B0BDE8F04000F043B901F0A1
:1070080065FC0028DDD003B0F0BD9DF8063015F80A
:1070180034008DF8046005EBC40223F007038DF8F3
:10702800063001A993788DF805303A4601F096FCB0
:10703800013CE4B20028D8D0E5E70720E3E700BF29
:10704800402A0020302A00201C2A00203D6E020021
:10705800202A0020282A00205D6F0200E4AE0200EA
:107068001FB50021039001AA44F20100CDE90111E6
:1070780000F004F805B05DF804FB000038B572B6FE
:10708800FFF75EFDFFF7CAFB0028FBD1104B114C40
:10709800114D1249E41AE408240444F00100FFF7F2
:1070A80009FDD5F8F030DB0700D500BE0C4944F0E7
:1070B8000200FFF7FFFCBFF34F8FEA68094B02F4A9
:1070C800E0621343EB60BFF34F8F00BFFDE700BFE3
:1070D8007CAC0200A4AC020000ED00E0E8AE0200C7
:1070E800F4AE02000400FA0510B5D0E90243D1E974
:1070F8000202A04272EB03032CBF0120002010BD46
:1071080008B50A4800F037FB094AD2E90031C0182F
:10711800084BD3E9002341F10001904271EB0303CE
:1071280003D210F1807041F1000108BD001E00205B
:10713800482A0020C02A002037B505460C460A48D0
:1071480001A900F04CFB60B10570446001A9064834
:1071580000F06FFB18B1054800F012FB002003B0E7
:1071680030BD0420FBE700BFAC2A0020001E002031
:10717800294B73B51E7804461EB90026304602B066
:1071880070BD0028F9D0FFF7BBFFD4E90223904275
:10719800994139D300230DF107008DF8073000F02D
:1071A80093F923692BB94FF0FF324FF0FF33C4E94D
:1071B80002239DF8070000F0ABF9D4E905309847A1
:1071C80000250DF107008DF8075000F07DF92369BF
:1071D800C3B1D4E90212B2F1FF3F08BFB1F1FF3FDA
:1071E80005D05B1842F10002C4E9023235469DF829
:1071F800070000F08DF9002DBFD00848214600F0A7
:10720800BDFFBBE71D46F2E7B3F1FF3F08BFB2F190
:10721800FF3FB2D0F1E700BF502A002010AF0200B4
:1072280013B5114B114918680190082310485822CA
:1072380000F0C2FA044698B90E4A0F4801A900F0B6
:107248008BF9044660B90C48012100F077FA012354
:107258000A4A0948194600F0D9F9094B01221A705F
:10726800204602B010BD00BF0CAF0200542A002017
:10727800AC2A002019730200001E0020FFFF7F00C7
:10728800502A002030B56AB103684FF0FF344FF040
:10729800FF355A614A1E5142C3E9024551411961FD
:1072A800002030BD0720FCE7F7B5044600250DF1A6
:1072B800070017460E468DF8075000F005F9D4E987
:1072C8000223B3F1FF3F08BFB2F1FF3F07D1FFF739
:1072D80017FF301841F10001C4E9020101259DF8AA
:1072E800070000F015F955B12369A76103B12661BC
:1072F8002146002003B0BDE8F040FFF71DBF284637
:1073080003B0F0BD014800F036BA00BF001E0020EF
:107318002DE9F743064600F019FA40B1624AD2E96E
:10732800003113F1807341F10001C2E900310021FD
:10733800304600F01AFA38B15C4C236823B1206853
:10734800FFF716FF002323600121304600F00DFAF5
:1073580020B1FFF7D5FE564BC3E900015548534C01
:1073680001A900F076FA4FF0FF384FF0FF39A0B9C5
:10737800DFF844814D4D404600F016FF002800F02C
:107388008580D0E90223B3F1FF3F08BFB2F1FF3F88
:1073980032D1404600F002FFEDE70378012B20D000
:1073A800022B08D1444D284600F0F8FE002877D07B
:1073B800C0E90289F7E75BB94168D1E90223B3F173
:1073C800FF3F08BFB2F1FF3F02D03B4800F0D6FEB6
:1073D80001A9384800F068FA01A9364800F039FADE
:1073E800C5E741682368994202D100232360EFE78B
:1073F800314800F0DCFEEBE7296891B12968D1E952
:10740800020182428B412FD22B68D3E90223B3F1C8
:10741800FF3F08BFB2F1FF3F03D02968404600F0A4
:10742800ADFE404600F0BAFED0E902490746FFF734
:1074380067FE201A69EB0109012879F1000318DBBE
:10744800B0F5350F13D3FFF75DFF1C4A02441C4803
:107458004FF49603002100F0F9F890B92B6813B99E
:10746800304600F0CBF82F6003B0BDE8F083224629
:10747800EDE71348002100F06EF93846FFF778FE73
:1074880001E00D28F9D000232B6074E7074B1B6837
:10749800002BE9D1304603B0BDE8F04300F0B2B8A4
:1074A800084B01221A7093E7482A0020C82A0020B6
:1074B800C02A0020AC2A002010AF0200FFFFB40051
:1074C800001E0020502A002070B5EFF3108672B617
:1074D8000C4A946801239CB993600B4B0B4DD3F86D
:1074E800801029401160C3F88050D3F8841051608F
:1074F8004FF0FF32C3F88420047006B962B670BD3D
:107508000370FAE7CC2A002000E100E0FC06FFBD8A
:10751800084B9A6810B55AB150B9EFF3108172B69A
:10752800054A1C6814605C685460986001B962B6CA
:1075380010BD00BFCC2A002000E100E0435882B013
:107548003BB10023435043580193019B012002B0F3
:1075580070471846FBE70000F8B5204B4479204EE9
:1075680043F824201F4A204B06EBC4049B1A2279B7
:10757800DB081B0432B143F002001C49FFF79AFAFA
:107588000820F8BD02680C88C2F8084590F9045034
:107598008A7804795201002DD2B219DB14494F19A7
:1075A80087F8002301226D0904F01F0402FA04F48D
:1075B80041F82540427906EBC201012446F8320021
:1075C8000C7143F003000B49FFF774FA0020D8E769
:1075D800094904F00F040A55ECE700BFE02A00202F
:1075E800D82A00207CAC0200B4AC02001CAF020018
:1075F80000E100E03EAF020014ED00E00368012264
:107608001A607047036801225A60704773B501F128
:107618005005AD000068ADB24FF480348C400026B0
:10762800C0F80843C0F84843465101F5A8714559C8
:10763800019522F07F42019D40F82120C0F8444383
:107648000BB1C0F8044302B070BD00002DE9F74F3C
:107658000D4622F07F4402684FF4803705F150064A
:107668008F408046B60002EB8500C2F84873B6B278
:10767800C2F80873D2F8041599464FF0000BD0F8F9
:107688004035C0F8401542F806B05B1A925900928E
:1076980023F07F43012B009A4FEA850A0CD1264B31
:1076A8004FF4806043F001039847D8F8003043F85E
:1076B80006B09B590193019BD8F80010D1F80465D6
:1076C800C1F84473A31B23F07F43012B1CD11A4B31
:1076D80005F5A875013443F0010341F825404FF43E
:1076E80080609847D8F80030D3F804359E4209D115
:1076F800D8F800300020C3F84473C3F8047303B00B
:10770800BDE8F08F0D20FAE78A44C9F1FF13CAF8E3
:107718004045D1F80405221A013A22F07F4203F5C8
:107728007F439342EED3002AE2D10134CAF84045A0
:10773800D1F804359842DAE750AF02000368022214
:10774800C3F8442309B1C3F80423704700684FF411
:107758008271FFF7F3BE4FF4803303FA01F1036837
:10776800C3F84813C3F808137047503189000068FC
:1077780089B2FFF7E3BE0368D3F804057047000039
:1077880090F90430002B09DB5A09012103F01F038B
:1077980001FA03F34032024941F82230704700BF32
:1077A80000E100E0024B034A1B681068184700BF5D
:1077B800E02A0020D82A002010B561B1B2FBF3F40A
:1077C80003FB1424A4B244B9C0E900148460828184
:1077D800C381204610BD0E20FCE70920FAE737B523
:1077E80050E8013F9DB2C48925448489A54228BF39
:1077F8002D1B0489A54202BFBFF32F8F002207E08B
:10780800C5EA030540E80154002CE9D14FF0010214
:107818008DF803200193019A0A609DF8031001F086
:10782800FF0321B1006810FA82F003B030BD18469A
:10783800FBE70A884B889A4209D150E8012FC2EA2F
:10784800024240E80123002BF7D1012070470020B5
:10785800704737B550E8023F1FFAA3F5C488A54220
:1078680002BFBFF32F8F00220DE0C489254484890D
:10787800A54228BF2D1BC3EA054540E80254002C49
:10788800E8D14FF001028DF803200193019A0A60B4
:107898009DF8031001F0FF0321B1006800EB1240CE
:1078A80003B030BD1846FBE70A884B889A4209D1D5
:1078B80050E8022FC2EA224240E80223002BF7D107
:1078C800012070470020704701F01F024B09012179
:1078D800914000EB830000F01EB801F01F03012265
:1078E8009A404B0900EB8300D14300F02CB84B09B8
:1078F80001F01F0150F82300C84000F00100704754
:1079080010B5034653E8000F0A4643E8002494F0F4
:10791800000FF7D110BD10B5034653E8002F42EA17
:10792800010043E8000494F0000FF6D110BD10B533
:10793800034653E8000F00EA010243E8002494F0EC
:10794800000FF6D110BD10B5034653E8002F02EA28
:10795800010043E8000494F0000FF6D110BD10B503
:10796800034653E8002F02EB010043E8000494F0BB
:10797800000FF6D110BD10B5034653E8002FA2EB57
:10798800010043E8000494F0000FF6D110BD012176
:10799800FFF7C1BF0021FFF7CABF10B590B1D0E90A
:1079A800012301689B1ADBB20A60013BDBB2FF2BA3
:1079B800026802D10020107110BD11684C1C1460BF
:1079C8000B70F2E70E20F7E737B5054600240DF1F6
:1079D80007008DF80740FFF777FD2A686B68116884
:1079E80099420ED9481E106011F8013CEC68298AAA
:1079F80001FB0344AB6811791B1ADBB2994238BF0B
:107A080013719DF80700FFF783FD204603B030BDD2
:107A180037B5054600230DF107000C468DF80730F1
:107A2800FFF752FD2A681368591C1160E968641A47
:107A3800298AB4FBF1F41C709DF80700FFF768FD74
:107A480003B030BD826810B504462AB143690168A5
:107A5800006998470023A36010BD0EB403B50399CD
:107A680021B104AB01AA019300F076F802B05DF8E9
:107A780004EB03B070470A2938B504460D4602D115
:107A88000D21FFF7F8FFA3682268591CA160D5549F
:107A9800D4E901329A4204D32046BDE83840FFF7C2
:107AA800D1BF38BD2DE9F84F9846DDE90A431546A0
:107AB80082460F460A464FF00109AA420FD2C14535
:107AC80038BFC14613F0010B01D16CB9002401265F
:107AD800B8F1010F1BD908F1FF386E43F8E709F137
:107AE8000109B2FBF5F2E8E79B070ED5B8F1000FE4
:107AF8000CBF30262026A145E9D2013C314650462C
:107B0800FFF7B9FF002CF6D1E0E72026F3E7B7FB33
:107B1800F6F39D42E1D9DFF83C80B7FBF6F3504617
:107B280018F8031006FB1377FFF7A5FF3346AB429F
:107B3800B6FBF5F6F1D2BBF1000F02D00CB1A145AE
:107B480001D3BDE8F88F20215046013CFFF793FF91
:107B5800F4E700BF56AF02002DE9F74F0546174678
:107B68008846002900F03E8118F8011B49B92B7B93
:107B7800002B00F03781284603B0BDE8F04FFFF72F
:107B880061BF252940F0B780002698F800302D2BDA
:107B9800424608F1010823D0302B24D02B2B25D0C6
:107BA80000242A2B02F1010123D13B681A1D1B680E
:107BB8003A601C440A4613782E2B26D101324FF026
:107BC800000A104610F8011BA1F1300CBCF1090F96
:107BD8001DD80A2303FB0A13A3F1300A0246F0E773
:107BE80046F00106D1E746F00206CEE746F0040665
:107BF800CBE711F8013CA3F130000928DBD80A22B1
:107C080002FB0434303C0A46CBE74FF0000A12F876
:107C1800011B01F0FB0068289046F8D0782909D8A4
:107C28006F290CD8632962D022D8252963D0582916
:107C380000F0888098F80030002B95D197E77039CC
:107C48000829F7D801A353F821F000BFC77D020027
:107C58003D7C02003D7C02005D7D02003D7C02000F
:107C68003B7D02003D7C02003D7C02004D7D020010
:107C7800642901D06929DDD13A68D2F80090111D34
:107C880089EAE9723960A2EBE9724FF0010B092A1F
:107C980035DCD34538BFD3462CB1B9F1000F01DB31
:107CA800720700D5013CB30702D5BAF1000F03D023
:107CB800F00701D44CBB0024B9F1000F2DDAC9F14B
:107CC80000092D212846FFF7D6FE06F00302022AF6
:107CD80004D1BAF1000F01D11CBB0024CDE9004644
:107CE80053460A2249462846FFF7DCFEA2E73B68CE
:107CF8001A1D19783A602846FFF7BDFE9AE70A234D
:107D08000BF1010BB2FBF3F2C1E7A345D4D220215A
:107D18002846013CFFF7AFFECCE77107D5D52B21EC
:107D2800D0E7A345DAD230212846013CFFF7A3FE6D
:107D3800D2E73968CDE900460A1D3A6053460A225F
:107D48000968D0E739680A1D3A60CDE9004653460C
:107D58001022F5E73B681A1D3A6016F00106D3F8C1
:107D6800009024D1B9F1000F03D0484602F032FF49
:107D78000646B4421DD809F1FF3919F8011F002938
:107D88003FF458AF2846FFF776FEF6E72846013657
:107D9800FFF771FE19F806100029F7D1A642BFF4C3
:107DA80049AF20212846013CFFF765FEF6E700268B
:107DB800F0E720212846013CFFF75DFED9E73B6844
:107DC8001A1D3A60302128461C68FFF754FE7821B6
:107DD8002846FFF750FE00220823CDE9003221464D
:107DE800102280E703B0BDE8F08F00BF2DE9F84FFF
:107DF800B0F806A04579D2F800B09DF828900AFBA3
:107E080005F5043D88460BEB0301A94203F1040480
:107E180088BFA5EB030BB4FBFAF607460AFB16442A
:107E2800C2F800B04EB9AAEB04055D4528BF5D460F
:107E3800BBF1000F04D1BDE8F88F3F68013EF1E7C0
:107E4800043408EB06003C442A46B9F1000F0DD073
:107E58002146ABEB050B02F03FFEDA452E443F68A6
:107E680055464FF0000428BF5D46E1E7014620462D
:107E7800EFE7FFF792BDF8B546790146721E054651
:107E8800002393422D6803D30024A64202D8F8BDEC
:107E98000133F6E70F682846FFF7BAFD0134394683
:107EA800F3E72DE9F843068ACD1C0746FFF78CFD5A
:107EB800043E35440446B5FBF6F5F0B14FF4807343
:107EC800EDB28380C680013D076081464FF000080F
:107ED800A84512D23846FFF777FD064648B16379C0
:107EE8000133637108F10108C9F800000760814691
:107EF800EEE72046FFF7BFFF34462046BDE8F8838B
:107F080001210430FFF72BBD10B5012104460430D0
:107F1800FFF731FDC0B220B92046BDE81040FFF799
:107F2800AABF10BD1FB503920022009203AAFFF753
:107F38005DFF05B05DF804FB1FB5039201220092B6
:107F480003AAFFF753FF05B05DF804FB41DF704754
:107F5800064B10B500241C70054B1C60BFF35F8FE7
:107F68000449054800F0F4F8204610BDEC2A00202A
:107F7800F02A002070AF0200E42A002007B5002391
:107F88000DF107008DF80730FFF79EFAF1EE103A71
:107F980023F09F03E1EE103ABFF35F8F0A4B4022B4
:107FA800C3F884219DF80700FFF7B2FA02F094FCA9
:107FB80020B103B05DF804EBFFF7C8BF20BF40BF96
:107FC80020BF03B05DF804FB00E100E0026813681D
:107FD8005268934291BFD01A80680130801888BFD8
:107FE800C01A7047036881681A685B688B4234BF9F
:107FF80001330023D31A58425841704773B5002300
:1080080004460DF107000D468DF80730FFF75CFABE
:108018002046FFF7E7FF10B1237C002B3BD12368F4
:10802800A1685E685A688A4234BF013200225A60E9
:1080380028B11A688A4234BF013200221A60E26805
:108048006368511E072920D8DFE801F004101F14C7
:108058001F1F1F182A789A552046FFF7B7FF236875
:108068009A68824200D29860002415E02A8823F892
:108078001620F1E72A6843F82620EDE7D5E9000144
:1080880003EBC603C3E90001E6E7294602FB063015
:1080980002F022FDE0E704249DF80700FFF738FA14
:1080A800204602B070BD036818685B68C31A58425E
:1080B8005841704773B5002305460DF107000C467B
:1080C80016468DF80730FFF7FFF92846FFF7EBFF54
:1080D800002832D12B6819682EB91A68A86882421C
:1080E80038BF561C1E60EA686B68501E07281ED8E9
:1080F800DFE800F0040E1D121D1D1D165B5C2370C9
:1081080000249DF80700FFF703FA204602B070BD6F
:1081180033F811302380F3E753F821302360EFE779
:1081280003EBC103D3E90023C4E90023E8E701FB1B
:108138000231204602F0D0FCE2E70524E1E783683B
:1081480000225A60C3E904229A60DA601A60704714
:108158000B684A684360934208BF0023016008BF68
:1081680043607047436843B10268916852680B44A2
:108178009342436004BF00234360704770B544686E
:1081880006460D46206818B1B3682946984718B9BD
:1081980023682B60256070BD2468F3E7436818687E
:1081A80008B102681A6070474368186870474368E6
:1081B800186800B97047884203D102681A60012024
:1081C800704703460068F4E710B50D49A1F59472AD
:1081D800914201D800200FE08C1AE30F03EBE4036F
:1081E8005B1002EBC30452F83330834205D802D245
:1081F80004F10802ECE7606810BD2146E8E700BF1B
:108208007CB4020008B5FFF7DFFF024B002808BF67
:10821800184608BD3FB302004FF08053D3F8300131
:10822800421C04BF4FF0704393F8E00F831F58427D
:10823800584170474FF0704393F8E02F062A09D150
:10824800D3F8E83FC3F30313033B042B02D8024AD5
:10825800D05C7047002070478BB40200024AD2F805
:108268000034002BFBD0704700E0014010B5FFF749
:10827800D3FF40B14FF08053944AD3F82433C3F36B
:108288000423C2F84035FFF7D5FF10B1904B914A4F
:108298005A67FFF7C1FF48B14FF080534FF0804253
:1082A800D3F84432C3F34233C2F83C35FFF7C2FF78
:1082B80030B1894AD2F8FC3023F08073C2F8FC3020
:1082C800FFF7AAFF40B14FF080430022C3F80C210A
:1082D800C3F81021C3F83825FFF7ACFF20B14FF0E1
:1082E80080430322C3F8A025FFF7A4FF60B17B4BAE
:1082F8000522C3F810260122C3F888260022C3F8F5
:1083080018263F22C3F814264FF08053D3F83021A3
:10831800511C09BF4FF07043D3F8343193F8E02F64
:10832800D3F8E83F08BFC3F30313062A4DD1033B34
:10833800042B03D86A4AD35C002B46D04FF08052F6
:10834800684BD2F80414C3F82015D2F80814C3F8FF
:108358002415D2F80C14C3F82815D2F81014C3F851
:108368002C15D2F81414C3F83015D2F81814C3F821
:108378003415D2F81C14C3F84015D2F82014C3F8E9
:108388004415D2F82414C3F84815D2F82814C3F8B1
:108398004C15D2F82C14C3F85015D2F83014C3F881
:1083A8005415D2F83414C3F86015D2F83814C3F849
:1083B8006415D2F83C14C3F86815D2F84014C3F811
:1083C8006C15D2F84424C3F87025FFF725FF48B18F
:1083D8004FF080534FF08042D3F8583203F04F03E8
:1083E800C2F8E43EFFF718FF48B14FF08043D3F8D6
:1083F8000024D20744BF6FF00102C3F800244FF0F5
:108408008053D3F83021062A0ED1D3F83431033BF8
:10841800042B02D8344AD35C33B1344AD2F83C37FF
:1084280043F48063C2F83C372B4AD2F8883043F4CF
:108438007003C2F88830BFF34F8FBFF36F8F4FF0D0
:108448008053D3F83021062A0FD1D3F83431033BB7
:10845800042B02D8264AD35C3BB14FF01023D3F843
:1084680008224FF08043C3F858254FF01023D3F863
:108478000022002A03DBD3F80432002B22DA1D493C
:1084880001234FF01020C1F804351524FFF7E6FE4C
:10849800C0F80042FFF7E2FEC0F80442FFF7DEFE34
:1084A8000023C1F80435FFF7D9FEBFF34F8F0A49FF
:1084B800114BCA6802F4E0621343CB60BFF34F8FDD
:1084C80000BFFDE70D4B0E4A1A6010BD0030014099
:1084D80000C007400DF0ADBA00ED00E000500040CC
:1084E8007CB4020000C0004081B4020000100040CB
:1084F80086B4020000E001400400FA05081E0020CE
:108508000090D003044B1A5C012393404FF0A04223
:10851800C2F80C35704700BF90B40200044B1A5CD7
:10852800012393404FF0A042C2F80835704700BFBE
:1085380090B4020008B50020FFF7F0FF0120FFF714
:10854800EDFF0220FFF7EAFFBDE808400320FFF730
:10855800E5BFC20708B501460CD54FF0A04303227A
:10856800C3F84427C3F84827C3F84C27C3F8502753
:10857800FFF7E0FF8B070AD54FF0A0430C22C3F8A2
:108588003427C3F83827C3F83C27C3F8402708BD69
:1085980038B5074C051E04F1080318BF1C462368AC
:1085A8002BB11A6822605B6828469847F7E738BD00
:1085B800FC2A002020B9054B01225A70FFF7E8BFBA
:1085C800012802D1014A9070F8E77047F42A002088
:1085D80020B9034B01225A70FFF7DABF704700BF7A
:1085E800F42A002038B50E4C2378B3B90D486360DF
:1085F800A3602361E36000F0E7F8054602F06CF938
:1086080008B900F0EDF801232370074BD3F80034C4
:108618000BB10123A370284638BD8525F5E700BFB7
:10862800F42A0020BD8502000000014037B50D4C3A
:1086380000230DF107008DF80730FEF745FFE368CA
:10864800013BE360E36833B9074BD3F8005415B92D
:1086580000F0D8F8A5709DF80700FEF759FF03B0A1
:1086680030BD00BFF42A002000000140012813B5E6
:108678000CD0032820D038B9134B0122C3F880202E
:10868800BFF34F8FBFF36F8F02B010BD0F4C0023A5
:108698000DF107008DF80730FEF716FF23780BB9A8
:1086A800FFF7A0FFE3689DF807000133E3600123AB
:1086B800A370FEF72DFFE7E700F092F802B0BDE8DF
:1086C8001040FFF7B3BF00BF00E100E0F42A00202C
:1086D8001FB503788DF800304368019383688DF8DF
:1086E8000830C368054A0393054B684653F82130A0
:1086F80052F82110984705B05DF804FB082B0020BC
:108708000C2B00201FB503788DF8003043680193C7
:1087180083688DF80830C368054A0393054B68469B
:1087280053F8213052F82110984705B05DF804FB42
:10873800082B00200C2B0020F0B5194B90F800C036
:1087480091F81DE043F82C20164B16460A6943F8A9
:108758002C20154B03F80CE00C4607460FCC89B0CB
:108768006D460FC594E80F0085E80F00CDF810C0DE
:10877800BEF1000F09D0002E0C4A694608BF3246E8
:10878800381D00F043FD09B0F0BD002E084A6946C7
:1087980008BF324607F10C0000F01AFBF3E700BFF0
:1087A8000C2B0020082B0020102B0020D98602005B
:1087B8000D87020000F18040002382B00360036847
:1087C8000193019B02B07047044A137923B9012130
:1087D800106091801846704785207047142B002040
:1087E800074B1A68D20704D4C02283F80023012259
:1087F8001A604FF080430122C3F81825704700BF64
:1088080000E100E04FF0804208B50223C2F80833C7
:108818004FF48270FFF7CEFF0123D360D2F81834EB
:10882800DB03FBD408BD00004FF0804110B5D1F840
:10883800003163B14FF48070FFF7BCFF0D4B5879DE
:108848000122C1F8082310B95A711B6898474FF0E4
:108858008042D2F8043163B14FF48270FFF7AAFF67
:108868000223C2F80833034BBDE810401B680120FF
:10887800184710BD142B002000F1804000F5C040BF
:10888800002382B0036003680193019B02B0704724
:10889800800000F1A040D0F8002722F44032C0F850
:1088A8000027D0F8003743EA0141C0F800177047A5
:1088B800054B4FF0FF32072843F8202084BFC0182B
:1088C80080F84820704700BF1C2B002010B51A4CB8
:1088D80094F858306BBB4FF0FF3222FA03F1C90706
:1088E80048BFE11803F1010348BF81F83020202B6D
:1088F800F3D10021C8B20131FFF7DAFF0C29F9D111
:10890800042200210D4802F010F90D4BC02283F813
:10891800062340221A604FF4BE70FFF7ADFF094BE3
:108928004FF00042C3F80423012384F85830002094
:1089380010BD0820FCE700BF1C2B0020702B002076
:1089480000E100E000600040034B93F85800003855
:1089580018BF0120704700BF1C2B0020F0B5394E0E
:10896800331893F93030002B69DA8D78C5F3400558
:10897800002D0BBF082300230C240824A34201D197
:108988000420F0BD56F82370013743D137185CB284
:1089980046F8232087F8304015B9F21882F84800C5
:1089A8008A78550716D4D70736D5820002F1A04237
:1089B800D2F8005725F00205C2F80057224FC50823
:1089C80000F0070C012202FA0CF217F805C042EA7F
:1089D8000C027A558A780D7812F0020225D09B0095
:1089E80003F1804303F5C0430002D3F8102522F4B5
:1089F800473222F44072C3F810252D04D3F810250D
:108A080000F4F85005F4403528431043C3F8100526
:108A18000020B6E70133B1E74D7800F5E0724FF07A
:108A2800A047AD0047F82250C8E7083C46FA84F44E
:108A380094F8500040EA851584F85050E8E708207B
:108A48009FE700BF1C2B0020702B00204FF0A04395
:108A5800D3F8103523FA00F000F001007047000049
:108A68002DE9F74F00244E4D01944FF480720121F7
:108A780002F1804303F5C04390B21B68012B06D175
:108A8800D5F804330B4202D0FFF7F6FE0C4304324C
:108A9800B2F5907F4FEA4101EAD1414BD3F87C31DE
:108AA800012B0CD14FF4BE70FFF7E6FE4FF0A04348
:108AB80044F00044D3F820250192C3F82025E3B2FE
:108AC800D3B1384F00250126344210D0AB0003F152
:108AD800804303F5C043D3F81005D3F8101557F8B1
:108AE800253023B1C1F30141C0F304209847013573
:108AF800082D4FEA4606E7D1002C48DA294D4FF0F9
:108B0800A048294E4FF00009012716F9013B5A1CCD
:108B180031D0C3F3C20202A90A44DCB212F8042C11
:108B280003F03F0A03F0070307FA03F31A4222D0BF
:108B38000AF5E073504658F82330C3F3014BBBF1F4
:108B4800020F0CBF03210221FFF7A2FE07FA0AF366
:108B5800C8F8203505EB0A0393F9303055F823306F
:108B68004BB1A109032904D0BBF1020F12D101298D
:108B780001D15046984709F10109B9F1040FC4D150
:108B8800D8F820350193C8F82035002BB9D103B0A7
:108B9800BDE8F08FBBF1030FEDD10229E8E700BF74
:108BA800006000401C2B00206C2B0020014B1B6830
:108BB800184700BF782B00200E4B984237B50C465B
:108BC80002D0002003B030BD00230DF107008DF85E
:108BD8000730FEF779FC084B1D7915B901221C6096
:108BE8001A719DF80700FEF793FC002DE9D01120BB
:108BF800E8E700BF00200040782B0020034B984294
:108C080001BF034B00221A601A7170470020004010
:108C1800782B00200023435082B043580193019BD6
:108C280002B070470A4610B54FF48E71FFF7F2FF95
:108C3800136A9168C95C136A01331362C0F81C1582
:108C480010BD8B690A4610B54FF4847123B9FFF73C
:108C5800E1FFD0F8183510BDFFF7DCFF536AD16883
:108C6800D0F81805C854536A01335362F3E700007B
:108C78001FB501238DF80030044BCDE90110D3E96D
:108C880000126846904705B05DF804FB802B002071
:108C980030B54D4DD5F804339A0585B051D5D5F882
:108CA8002431002B4DD04FF492712846FFF7B2FFC4
:108CB8004FF40173C5F80833444B93F829200AB9D7
:108CC80001226A60404902228DF80020D1F88024F0
:108CD800C1F8802403929A690292DA68019200220C
:108CE800C3E906226846D3E9001290473648D0F80F
:108CF8001C315BB1354A5169136A99424DD992F8D2
:108D08002830002B49D11146FFF78CFF2E48D0F8A8
:108D18004431002B56D04FF4A271FFF77BFF2B4B49
:108D280093F829200AB1012202609A69002A49D0E1
:108D3800586AD96800229A6105B0BDE83040FFF74B
:108D480097BFD5F804335B07D0D5D5F80831002B89
:108D5800CCD01E4C1C482146FFF773FF636AA269FA
:108D68009A42C3D1E369E1684BB1A3612369E36027
:108D78000023606AE3616362FFF77AFFB6E794F85D
:108D880029300BB901236B600F4B4FF40172C3F804
:108D980008230023606AA361EEE70B484FF48E7145
:108DA800FFF738FF5369002BB0D0516902910023B7
:108DB80091688DF80030019153616846D2E900133B
:108DC8009847A3E705B030BD00200040802B002065
:108DD8002DE9F843534D90F804802C2303FB0853E6
:108DE800064693F82A300C469146002B40F09680B0
:108DF8004D490068FFF7E0FE0746002840F09080E4
:108E080022683068511C0BD04FF0A04101239340D9
:108E1800C1F8083502F5E0734FF0030C41F823C0A0
:108E280061684B1C1FBF01F5E0734FF0A04C4FF079
:108E3800000E4CF823E0A369C0F8243594F814C058
:108E4800637DBCF1010F4CEA0303C0F86C35C0F830
:108E58001415C0F80C251DD1A268531C1FBF02F5BC
:108E6800E0734FF0A0414FF0000C41F823C0E368D5
:108E7800591C0BD04FF0A04C01219940CCF8081593
:108E880003F5E0714FF0030E4CF821E0C0F8083507
:108E9800C0F810252C2202FB08F2AB18C3F8049086
:108EA8002369AB50B9F1000F20D04FF48E71247FA5
:108EB800FFF7B0FE4FF4A2713068FFF7ABFE3268DF
:108EC8001A4BC2F80433130B42F307326101002A2C
:108ED800C9B21EDB1648841884F800130121520910
:108EE80003F01F0301FA03F340F822303368042229
:108EF800C3F800252C2303FB08530022C3E90622EC
:108F080083F829205A61012283F82A203846BDE8CF
:108F1800F883084A03F00F03D154E7E70827F5E779
:108F28001127F3E7802B0020998C020080000200B3
:108F380000E100E014ED00E0F8B503680579304C75
:108F48000022C3F800252C2202FB05425268A2B178
:108F58002C4AC3F808231A0B43F30733002B0CDB06
:108F680002F01F015B0901228A402033264941F89B
:108F78002320BFF34F8FBFF36F8F0068D0F80C65C5
:108F8800D0F81415D0F80835D0F810254FF0FF3771
:108F9800BE42C0F8147518BF06F5E076C0F80C7527
:108FA800C0F80875C0F810751EBF4FF0A0474FF005
:108FB800020C47F826C04E1C1FBF4FF0A04601F513
:108FC800E071022746F82170511C1FBF4FF0A041E5
:108FD80002F5E072022641F822605A1C1FBF03F511
:108FE800E0734FF0A042022142F82310FFF706FE7B
:108FF8002C2303FB0544002384F82A306360F8BD62
:10900800802B00208402020000E100E00279044B7A
:109018002C2101FB02335869003818BF0120704722
:10902800802B00202DE9F84F064690F804808946E9
:109038009246FFF7EBFF044600283CD1204F2C2531
:1090480008FB057B4FF48E71CBF814A0CBF8089081
:10905800CBF820008BF828003068FFF7DBFD30687C
:10906800012383605946FFF7DDFDDBF804305D46D8
:109078001BBB3068DBF814402B6A9C4211D833685C
:10908800D3F81C21002AFBD00122DA6000202C230F
:1090980003FB087700237B61BDE8F88F95F828303B
:1090A8003BB9D0F81C31002BF8D05946FFF7BAFD70
:1090B800E2E70F20EBE71120EEE72046ECE700BFE0
:1090C800802B00200023435082B043580193019B1A
:1090D80002B070471FB501238DF80030044BCDE96D
:1090E8000110D3E900126846904705B05DF804FB0B
:1090F800AC2B00207FB5434AD2F82461002E60D003
:1091080010464FF49271FFF7DDFF02238DF800300F
:10911800D2F88034C2F880340393D2F83C350293F5
:10912800394BDA6801920022C3E906226846D3E97E
:10913800001290473348D0F8443173B14FF4A2710C
:10914800FFF7C0FF304B9A693AB10022C3E9062203
:10915800D968D0F83C05FFF7BDFF2A48D0F8203180
:10916800ABB14FF49071FFF7ADFF0123C360264BFD
:109178005A6962B1D0F84C150291002299688DF8AD
:10918800002001915A616846D3E9001290471D48B2
:10919800D0F858319BB14FF4AC71FFF793FF1A4BDD
:1091A8005A6962B1D0F84C150291002299688DF87D
:1091B800002001915A616846D3E90012904704B033
:1091C80070BDD2F81031002BB4D04FF4887110461E
:1091D800FFF778FF0C4BD2F83C0599698842A9D172
:1091E800DC69D96864B1D2F8005225F02005C2F8CC
:1091F80000521A699C61DA60DE61FFF76BFF99E73C
:109208009C61FAE700200040AC2B00202DE9F843D0
:109218005A4E90F80480242303FB0863044693F80D
:1092280020300D469146002B40F0A3805449006839
:10923800FFF7C2FC0746002840F09D802A68206896
:10924800511C0BD04FF0A04101239340C1F80835C1
:1092580002F5E0734FF0030C41F823C069684B1C1A
:109268001FBF01F5E0734FF0A04C4FF0000E4CF813
:1092780023E0AB69C0F8243595F814C06B7DBCF1C8
:10928800010F4CEA0303C0F86C35C0F80C25C0F890
:1092980014151DD1AA68531C1FBF02F5E0734FF0C7
:1092A800A0414FF0000C41F823C0EB68591C0BD0CB
:1092B8004FF0A04C01219940CCF8081503F5E07156
:1092C8004FF0030E4CF821E0C0F80835C0F810251F
:1092D800242202FB08F2B318C3F804902B69B35098
:1092E800B9F1000F2FD04FF488712A7FFFF7EAFEFB
:1092F80020684FF49071FFF7E5FE20684FF49271F3
:10930800FFF7E0FE20684FF4A271FFF7DBFE4FF491
:10931800AC712068FFF7D6FE23681A49C3F8041316
:10932800190B43F307335201002BD2B21CDB16484A
:10933800C51885F8002301225B0901F01F0102FA14
:1093480001F140F8231023680822C3F800252423DC
:1093580003FB08660023C6E906337361012386F818
:1093680020303846BDE8F883084B01F00F015A5405
:10937800E9E70827F5E71127F3E700BFAC2B002042
:10938800FD9002001003420000E100E014ED00E04F
:10939800F8B5444C0579242303FB054302465B6872
:1093A8000068ABB1404BC0F8083340F30733002BDB
:1093B8004FEA10310CDB01F01F065B090121B140B7
:1093C80020333A4E46F82310BFF34F8FBFF36F8F09
:1093D800D0F8003223F02003C0F80032242303FB26
:1093E80005439B692BB14FF4A271FFF76BFE012374
:1093F80043604FF4AC71FFF765FE0123C36024237B
:1094080003FB0543D0F858110029FBD0996919B11D
:10941800D0F844110029F5D00023C0F800351368AE
:10942800D3F80C75D3F81465D3F80825D3F81015BC
:109438004FF0FF3C6745C3F80CC518BF07F5E07748
:10944800C3F814C5C3F808C5C3F810C51EBF4FF04C
:10945800A0434FF0020C43F827C0771C1FBF4FF002
:10946800A04306F5E076022743F826704E1C1FBF7E
:1094780001F5E0714FF0A043022643F82160531C28
:109488001FBF4FF0A04302F5E072022143F82210FB
:10949800FFF7B4FB242303FB0544002384F82030A2
:1094A8006360F8BDAC2B00201003420000E100E02F
:1094B8000279044B242101FB02335869003818BF94
:1094C80001207047AC2B002001F06043B3F1005F2E
:1094D8002DE9F0470646884692463BD190F804901D
:1094E800FFF7E6FF0446002836D11D4F30682425D3
:1094F80005FB09754FF49071C5F814A0C5F80880EC
:10950800FFF7E0FD4FF4AC713068FFF7DBFD33681F
:109518006A69A968C3F84415C3F8482501229A6006
:109528006A68DAB9D3F82021D3F858011AB90028A3
:10953800F8D00F2007E00028FBD10122DA60D3F829
:109548005821002AFBD0242303FB097700237B61E1
:10955800BDE8F0871020FBE71120F9E72046F7E780
:10956800AC2B0020032811D8012A0AD101290FD1D8
:1095780000F10E02D2B20D4B00EB40001A5400204D
:1095880070470129F7D0022904D049B10720704754
:109598000022F8E7054B00EB400018444270EEE764
:1095A800024B00EB400018448270E8E7D02B002003
:1095B80008B5012202210020FFF7D4FF08B10728CF
:1095C80010D1072202210120FFF7CCFF08B107289C
:1095D80008D100210A220846FFF7C4FF10B1072866
:1095E80008BF002008BD00000388102B10B502D06A
:1095F800112B1ED010BD1A4C2168B1B901220846A2
:10960800FFF7B0FF08B1072824D107220221012063
:10961800FFF7A8FF08B107281CD104220221002067
:10962800FFF7A0FF08B1072814D12368013323608E
:10963800E0E70B4A1368013B1360002BDAD1FFF710
:10964800B7FF0028D6D0074B1B68002BD2D0BDE847
:1096580010401847034B1B68002BE6D09847E4E7F7
:10966800E02B0020DC2B00200D2807B50BD110487B
:10967800019101F001F9019A50B143F202029042BE
:1096880013D0082811D003B05DF804EBFDF7E8BC4F
:10969800084B09480949C01AC008000440F00300F3
:1096A80003B05DF804EBFDF709BA03B05DF804FBFD
:1096B800702D00207CAC0200A4AC0200B6B40200FD
:1096C80038B5054D4FF4FA7445F001054FF47A406A
:1096D800A847013CFAD138BDF0B4020008B54FF4F0
:1096E80080410020FDF748F808B1FDF7B9FCFCF708
:1096F80075FFFDF795FD08B1FDF7B2FC0120FEF7F7
:1097080028FF194840F233320121FDF751FC08B116
:10971800FDF7A6FCFEF71CFC08B1FDF7A1FC1348F9
:10972800134B1449C01AC008000440F00300FDF7A9
:10973800C1F90020FEF7E6FEFFF7C2FF0020FEF7A2
:10974800EDFEFFF7BDFF0020FEF7DCFEFFF7B8FFD8
:109758000020FEF7E3FEFFF7B3FFFDF75FF80028F0
:10976800FBD1FEF70BFCE4E70C1E0020A4AC0200C2
:109778007CAC0200CDB402000369C26893429CBF6E
:1097880080681B18013B981A70472DE9F843D0E907
:1097980002940546A9EB04084068904520440F460A
:1097A800144404D901F098F9EC60BDE8F883424606
:1097B800A4EB090401F090F96868224607EB080158
:1097C800F0E72DE9F843C5680646894617464FF085
:1097D80000083469B3687068A54228BFE418013CE2
:1097E800621B5C1BBC4228BF3C46944228BF1446FF
:1097F80049462844224601F06FF9B3682544AB4234
:1098080008BF00253F1BA044A144F560E1D14046B4
:10981800BDE8F88310B5114C114AA2610223C4E9CE
:109828000433104BE361A2644FF400730E4A0F49EE
:109838002362E26400231022E01DA3626362E362F4
:10984800A3656365E365226501F0A2F9084920462E
:1098580001F09EF92023A37110BD00BF042E002043
:109868000CB502008C2E00207C2E002015B50200BD
:1098780019B5020070B5164B182400FB04451D44A9
:1098880004FB00331646DC6A012C0ED0022C18D0DB
:10989800E4B92846FFF770FF864204D832462846C6
:1098A800FFF773FF3446204670BD2846FFF764FF74
:1098B8008642344628BF044622462846FFF765FFFD
:1098C800F1E72846BDE87040FFF77BBF0024EAE7D0
:1098D800042E0020FFF79EBF30B5C8B1F2B10024B6
:1098E800651C8D4206DA1588A54212D805196D78CF
:1098F8009D420ED1A14211D9005D48B1013880B214
:1099080030B10234A3B210FA84F4A14206DB13800A
:1099180030BD055D01352C44A4B2E1E70020F7E72E
:10992800F7B500230646ADF80630144612B90020F4
:1099380003B0F0BD09230DF10602FFF7CDFFBDF816
:1099480006700546002FF2D00028F0D0204601F01E
:1099580041F9A8420246EAD1F119204601F085F8FA
:10996800B0FA80F04009E3E70AB1FDF7ADBFFDF7B3
:10997800B4BF73B50191019C06466CB100252C4615
:10998800294601A8FDF7B3FF18B106EB44030134DB
:109998009D800135142DF3D13046346002B070BD7E
:1099A8002DE9F04703888488103B8CB005460A2BC4
:1099B80021D8DFE803F00640202020202020206561
:1099C8004700DFF8E880D8F80830DB430093D8F880
:1099D80004106846FDF7B7FF009901A8FFF7C9FF13
:1099E8000DF108090027019B9F4207D3132C12D9B8
:1099F8000420FDF735FB0CB0BDE8F08739F802AB61
:109A080000260136514608EB8600FDF766FF1E2E3C
:109A1800F7D10137E7E71F482146FDF755FF1E48F4
:109A28002146FDF751FFEB7B022BE4D11B48214671
:109A3800FDF74AFFDFE7174821460CB0BDE8F047BD
:109A4800FDF74BBF027A16483F2A4FEA1215214606
:109A580094BF00220122FFF787FF022D94BF002246
:109A6800012210482146FFF77FFF012D0E4894BFC1
:109A78000022012221460CB0BDE8F047FFF774BF71
:109A8800037A002BB7D1427A0548C2F3C0022146B7
:109A9800F1E700BF9430002090300020983000207B
:109AA800A4300020A03000209C3000208C30002002
:109AB80030B50B4B19680B4B0022914201D10020A5
:109AC80009E09D788478A54206D11D880488A542BE
:109AD80002D1054B186830BD01320433EDE700BFF1
:109AE8001031002014310020083100202DE9F84FF2
:109AF80090F8C6A24FF0760B04460AFB0B00884686
:109B08009146FFF7D5FF074668B3D4F8CC52052D28
:109B180029D804EBC5165A46A6F8D2920BFB0A417F
:109B280006F5357000F0D8FFB8F1000FC6F84C7391
:109B38000E4F14BF0023022386F8D0323B6801354C
:109B48009D42C4F8CC520ED104F534750026EB6F53
:109B5800284698473B6801369E4205F18005F6D3B2
:109B68000023C4F8CC32BDE8F88F00BF10310020C4
:109B780030B5A1B004460D467C22002101A800F0B2
:109B8800D4FF03238DF80430044BADF806501B684E
:109B980002940BB101A8984721B030BD08310020CC
:109BA8002DE9F041074691F8C60276234FF00008E8
:109BB800A0B081F8C88200FB03100C461546FFF7D9
:109BC80077FF064660B17C22414601A800F0ADFF50
:109BD80001238DF80430ADF80650029701A8B0476C
:109BE8002946204620B0BDE8F041FFF7C1BF00007C
:109BF80030B58BB0044620220D4602A8002100F0A3
:109C080094FF042200210DEB020000F08EFF94F86F
:109C1800C53294F8C61213B3013BDAB276234B432C
:109C2800122000FB023323445B8A01339BB2ADF858
:109C38000430762303FB01412A460B89ADF8063030
:109C480003238DF80830019BCDE90543064B0493A7
:109C5800064B02A9186800F049FC0BB030BD76230A
:109C680003FB0143DB88E2E7A99B02002C310020BB
:109C7800F0B5044689B020220D466846002100F060
:109C880054FF94F8C7321E4A01331268DBB293427C
:109C980084F8C7324FF000022AD294F8C632194F1E
:109CA80084F8C5220133DBB2762113FB01F057F8A3
:109CB800237084F8C632261827504B433271E35874
:109CC800CDF81230104B02930222104B8DF8002071
:109CD8000122ADF81020186803942A46694600F05E
:109CE80005FC18B12A462146FFF75AFF09B0F0BD16
:109CF80084F8C82229462046FFF73AFFF6E700BF56
:109D08001031002014310020A99B02002C310020C2
:109D18002DE9F047044688B00D461646002120225A
:109D2800684600F002FF94F8C6C294F8C51276237C
:109D38001CFB03F2A0184FF0120E07791EFB01233B
:109D480001F1010C0A33BC4523441CD004F11C0C5E
:109D580000F1220807F1FF399444CAB2974216D994
:109D680089451B8919D00EFB01FA013338F80A20FE
:109D780093422AD10CEB0A0394F8C522013284F8E5
:109D8800C5220131E9E71B890289934208D10123E1
:109D98002B70002008B0BDE8F0870289934218D0E4
:109DA80001339BB2ADF810300B4B029300210B4BE3
:109DB800297004218DF80010ADF81220186803945A
:109DC8003246694600F092FBE4E7013A9BB292B250
:109DD800E8E70023D0E700BFA99B02002C31002050
:109DE8002DE9FF410C46054660B159B1974B1B78E8
:109DF80043B10388322B67D007D8112B00F01881A4
:109E0800302B1FD004B0BDE8F081332BFAD1828803
:109E1800B1F8CA329342F5D1C08891F8C6C291F818
:109E2800C562002800F0C080762101FB0C410023A8
:109E380009798DF80F30731C8B4200F0E68084F8A6
:109E4800C532A5E08388B1F8CA229A42DAD1C3881C
:109E58007BBB91F8C632762202FB03130269C3F872
:109E6800062091F8C432827A1344062B0EDC81F85E
:109E7800C432A9882046FFF7BBFE0028C2D0AA88B2
:109E8800214604B0BDE8F041FFF78ABE062381F8F9
:109E9800C4326F486F4B7049C01AC008000440F0C4
:109EA80002000190FCF706FE6C490198FCF702FEDF
:109EB800DFE720460021FFF719FEA988204604B0F5
:109EC800BDE8F041FFF7D4BE8288B1F8CA329A42A1
:109ED80098D1C388002B57D191F8C672762317FB07
:109EE80003F701EB0708837A98F804603344062BDC
:109EF80025DC88F80430122212FB0672334605F17D
:109F08000C012244002098F80460B34201F10A01D0
:109F180002F1120227D31222013B02FB034394F8F9
:109F2800C62276213B4401FB0242598A1389994291
:109F38002AD2062E28D0A98884F8C5629AE7062373
:109F480088F804304248434BCA5B4549C01AC008E8
:109F5800000440F002000190FCF7B0FD414901986F
:109F6800FCF7A8FDC7E751F80A6C42F8086C51F8ED
:109F7800066C42F8046C31F8026C168050809080B0
:109F8800D08010810133BEE7002384F8C532AA8847
:109F98000DF10F012046FFF7BBFE002842D0AA882A
:109FA8002146FFF7FDFD2DE7762303FB0CF312276F
:109FB80007FB0633B5F80AE0294623447045BFF489
:109FC80033AFCF89A7F52457082F08D8DFE807F063
:109FD80014170507070707071A008F899F829F8AAA
:109FE8003FB1DF8A2FB11F8B1FB15F8B002F7FF42A
:109FF8001BAF01300631E1E78F89DF82EFE78F89F8
:10A008001F83ECE78F895F83E9E701238DF80F3021
:10A018002046AA880121FFF769FDA9882046FFF795
:10A0280027FEEFE69DF80F30002B3FF4EBAEEFE78D
:10A03800B1F8CA3282889A4201BF002381F8C83237
:10A048004FF6FF73A1F8CA32DCE600BF0C310020DE
:10A05800BCAC02007CAC020020B502003FB5020097
:10A0680084B50200CAB5020090DF7047A5DF7047CB
:10A07800B5DF70477FB50023ADF80810ADF80A10BA
:10A088006A4602A90646ADF80C30ADF80E300093CA
:10A09800ADF80430FFF7E8FF054600B3114B124C4A
:10A0A800E41AE408FEF7AEF8240444F00104034679
:10A0B8000E4932462046FCF70AFDBDF80020BDF8DF
:10A0C800023052EA030103D009492046FCF7FFFC9D
:10A0D800BDF804201AB107492046FCF7EFFC2846D2
:10A0E80004B070BD7CAC0200DCAC020030B60200EB
:10A0F8007AB60200B9B6020013B5034680880C464A
:10A10800B8B91A88242A00F09B8014D8112A74D070
:10A11800232A00F0A680102A3ED0A37A4BB1E1880A
:10A128000020FFF7A3FF002840F0A1804FF48073C0
:10A13800638102B010BD3A2A67D0552AEDD1DB8879
:10A14800C988A072172B38BF17238B4228BF0B462C
:10A158002381FFF78DFF60B1FEF754F84D4B4E4950
:10A1680002464E481B1ADB081B0443F00100FCF7AB
:10A17800A5FCE27A002AD0D12369002BCDD040F685
:10A188007721ADF802202289ADF80010ADF804203F
:10A19800694620469847C0E7DB7B0A790A73012B9A
:10A1A80013D0022B14D0E18823898B4205D20020DA
:10A1B800FFF75CFF70B90123E372217B637B8B425D
:10A1C800ABD20020FFF756FFA7E70B88E380EAE74A
:10A1D8004B88FBE7112802D10123A372EDE7FEF7B4
:10A1E80011F82C4B2E4902462C481B1ADB081B047D
:10A1F80043F00100FCF762FCDFE71723CB800B81FB
:10A2080041F61B3348818B8187E75B89CA88934273
:10A2180028BF1346172B0A6938BF17230B8162B171
:10A22800C97A51B140F67721ADF80010ADF80200B7
:10A23800ADF80430694620469047002363816CE7F7
:10A248001A7A0B694A73002B3FF467AF4DF67A21EF
:10A258008DF80500ADF80010ADF802008DF8042067
:10A2680096E7197A237B994228BF1946AAE711284D
:10A278003FF45FAFFDF7C6FF064B094902460748A2
:10A288001B1ADB081B0443F0010002B0BDE81040B4
:10A29800FCF714BCDCAC020040B702007CAC020046
:10A2A8000FB702009BDF70479DDF70479EDF704746
:10A2B800A1DF7047A3DF7047AEDF704730B5048871
:10A2C80000239AB2944206D9456835F813508D4256
:10A2D80003F10103F5D1104630BD8B6910B50C466A
:10A2E8001988102913D8023189B2FDF7DAFD6060A8
:10A2F80078B1A16900230222FDF714FEA269606803
:10A308001288E1690223FDF70DFE002010BD092027
:10A31800FCE70420FAE710B50C46C98A10290AD8C8
:10A32800FDF7BFFD606040B1E28AA1690023FDF737
:10A33800F9FD002010BD0920FCE70420FAE7000021
:10A34800F0B58BB004460022C068124E0DF106012C
:10A35800FDF7B0FE142508B10BB0F0BDBDF806300E
:10A36800A76805FB0377002202A93846FDF7A2FE7D
:10A3780030B1E06800220DF10601FDF79BFEEAE727
:10A388009DF8083056F82330002BECD00398FDF7E1
:10A3980072FDE8E7ECB70200F7B505460C4C0D482E
:10A3A8000092241AE40824040B460F4616460A496C
:10A3B8002A7844F00100FCF794FBAB6833B1E968F4
:10A3C8003A46304603B0BDE8F040184703B0F0BD48
:10A3D800E4AC02007CAC02007CB70200F0B58FB0A0
:10A3E8000D46012206A90646FDF764FE044690B90B
:10A3F8009DF81830052B65D8DFE803F0030F1C24FF
:10A40800292EBDF82A20BDF828102846FFF750FF4E
:10A418000446112C40D10FB0F0BD02A90798BDF831
:10A428002E200C910023FDF787FD0AA92846FFF787
:10A4380041FFEDE7BDF828100DF12A022846FFF785
:10A4480031FFE5E70AA92846FFF72EFFE0E70AA94A
:10A458002846FFF72BFFDBE70DF1060402AB214688
:10A4680007980D9302220023FDF766FDBDF806202C
:10A478000D9907980C940223FDF75EFD0AA928465A
:10A48800BDF80670FFF718FF04460028C1D1BDF8D3
:10A498000630BB4218BF0C249DF818200F4B53F808
:10A4A800223013B10798FDF7E6FC002206A93046D2
:10A4B800FDF700FE002CAED02246294606A8FFF77D
:10A4C8006BFFA8E70648074B07491B1ADB081B0464
:10A4D80043F00200FCF7EEFADEE700BFECB702003B
:10A4E8007CAC0200E4AC0200C6B702002DE9F843D8
:10A4F8000F461446054620B94FF00E084046BDE801
:10A50800F8830029F8D0FFF71BFF3B78052B6AD8A2
:10A5180021462846FFF7D2FE2B88834263D01426B3
:10A528004643A8683044FDF7BEFD002860D03B785C
:10A53800052B3BD8DFE803F00311171E242A7A8A7B
:10A54800398A2046FFF7B4FE112851D058B3024685
:10A5580021463846FFF720FF25E007F11001204685
:10A56800FFF7A8FEF0E7398A07F112022046FFF745
:10A5780099FEE9E707F110012046FFF795FEE3E7AA
:10A5880007F110012046FFF791FEDDE7BB6907F1EF
:10A5980010012046B3F80080FFF78EFE30BBBB6980
:10A5A8001B8843450DD14FF00008A7E71B4B1C48FB
:10A5B8001C49C01AC008000440F00200FCF77AFAEF
:10A5C800F1E70C20C3E72869002895D03946984759
:10A5D8008046A0B192E73B7859F82330BBB1786840
:10A5E800FDF749FC13E04FF0070887E71128AED1C3
:10A5F800DFF834903B7859F82330002BE3D1A86872
:10A6080039463044FDF7FAFC80460028E3D1A868B3
:10A6180021463044FFF7E2FE70E700BF7CAC020041
:10A62800E4AC0200C6B70200ECB7020037B50C462E
:10A6380008B301B30588112D15D181882046FFF78D
:10A648003DFE2388ADF80600834214D0112D14D1A5
:10A6580063684FF6FF7223F810200DF10601E068D9
:10A66800FDF7CCFC07E0A5F130031F2BE5D9A5F1D8
:10A6780050031F2BE1D903B030BDA368142202FB9D
:10A688000030FFF7ABFEF6E78ADF70478BDF7047D5
:10A698008CDF704730B590F8233089B004460D46FA
:10A6A800D3B190F82C300193FFF7F0FF142200216A
:10A6B80003A800F03AFA019B04F1240204F12E01E8
:10A6C800A81CFFF7E5FF05238DF80C30049018B19E
:10A6D800E36B0BB103A8984709B030BD90F82E0082
:10A6E800C0F3C00070472DE9F04F054687B035F834
:10A6F800083B1B2B06460C4678D01D2B14D0102B7C
:10A708002FD11422002101A800F00FFA06238DF89A
:10A718000430B388ADF80C3004F12E030593E36BD5
:10A728000295F3B101A875E01422002101A800F0F8
:10A73800FCF904F12E0320460593FFF7CFFF04F13F
:10A74800600888B102238DF8043001A8E36B0295F4
:10A75800984741460020FFF797FF29462046FFF714
:10A7680099FF07B0BDE8F08F94F8210094F8229083
:10A7780088B394F820A0B6F824B0274604EB4A1A08
:10A78800574518D10020034601220295B9F1000F60
:10A7980024D09A4226D100238DF804302946204639
:10A7A800FFF778FFE36B0BB101A8984741460020FB
:10A7B800FFF76AFFD5E73A46306A5946FFF7B0F81F
:10A7C80020370028DCD09DF80C3043F001038DF8C9
:10A7D8000C300123D8E703460246D6E710B18DF8BE
:10A7E8000490DBE703238DF80430DBE71422002113
:10A7F80001A800F09AF9327A012AB2D1E36B002B52
:10A80800AFD004212E348DF8041005948DF808205B
:10A818000DEB01009847A4E7CB6803B118477047D0
:10A828001FB503460846D9B1D3B11A88112A19D0E1
:10A83800392A15D109889A888A4211D15C89818878
:10A848008C420DD1D98901290AD11B7C8DF8083099
:10A8580002218DF804108368ADF8062001A99847F5
:10A8680004B010BD9A880B889A4202BF4FF6FF7257
:10A878000023C1E90023F3E710B58AB004468DF838
:10A88800071010B302884FF6FF739A421FD0202298
:10A89800002102A800F049F901238DF808300D4B7A
:10A8A80022886069CDE90434E388ADF81A300DF1E7
:10A8B800070308934FF48033079302A902238DF806
:10A8C8001830FFF713FE0AB010BD0E20FBE7082072
:10A8D800F9E700BF21A80200014B1878704700BFB4
:10A8E8003031002007B508496846FDF731FC019B67
:10A8F80013B903B05DF804FBD3E90020904768461C
:10A90800FDF730FCF3E700BF20B80200FFF7EABF0D
:10A9180061DF704730B5134B1B7891B0FBB1124D16
:10A9280034240DF1020103A8ADF80240FFF7F0FF4F
:10A9380070B9294601A8FDF70BFC029B002BF0D04B
:10A9480003A8D3E90021904701A8FDF70BFCF4E721
:10A95800052804D011B0BDE83040FCF781BB11B028
:10A9680030BD00BF3131002038B802004BDF7047DE
:10A978001FB50E4C01A8FFF7F9FF70B9214602A8D0
:10A98800FDF7E6FB039B002BF4D00198D3E90021E7
:10A99800904702A8FDF7E6FBF4E7052804D004B0C9
:10A9A800BDE81040FCF75CBB04B010BD50B8020015
:10A9B8007F2805D8034B185C034B5B5C1840704735
:10A9C8000020704768B80200E8B80200A0F16103EF
:10A9D800192B98BF20387047A0F14103192B98BF55
:10A9E800203070477F2805D8034B185C034B5B5C0D
:10A9F800184070470020704768B80200E8B80200A5
:10AA0800A0F16103192B98BF20387047A0F14103CA
:10AA1800192B98BF203070477F299ABF01700120F9
:10AA28006FF02E0070475AB10A787F2A0AD800B111
:10AA38000260002119605960501A18BF0120704740
:10AA4800002070476FF02E007047000008B5034BD8
:10AA58005B689B681B68984708BD00BFFC23002003
:10AA680008B50921FFF7F2FF08BD9AB330B594463F
:10AA78000F2A18D902460B4640EA010414F0030FC6
:10AA880002D00CF1FF3C11E01946104604320433A1
:10AA98000C680568A54206D110461946ACF1040CAD
:10AAA800BCF1040FF0D8BCF1010C0FD00A460346E4
:10AAB80084441146184601330132047891F800E0C5
:10AAC800744503D1184611466345F2D100780B78D6
:10AAD800C01A30BD00207047844640EA010313F0D5
:10AAE800030F18D18446202A0BD32DE9F007B1E8CB
:10AAF800F807A0E8F807A2F12002202AF7D2BDE85B
:10AB0800F007042A07D351F8043B40F8043BA2F1AC
:10AB18000402042AF7D2002A05D011F8013B00F8F4
:10AB2800013B013AF9D1604670478446002A2DD08E
:10AB380010F0030F04D000F8011B013A26D0F7E704
:10AB4800C9B241EA012141EA0141202A12D3A2F106
:10AB580020022DE9F0030B460C460D460E460F4623
:10AB680088468946A0E8FA03203AFBD2BDE8F003FC
:10AB780020320BD0042A05D340F8041B043A05D030
:10AB8800042AF9D200F8011B013AFBD1604670474C
:10AB9800024610F0030F16D111F0030F13D12DE95F
:10ABA800F0004FF001374FF0803351F8044BA4EB1D
:10ABB800070525EA04051D4002D142F8044BF4E7D5
:10ABC800A1F10401F0BC11F8013B02F8013B002B94
:10ABD800F9D1704700F1010110F0030F11D010F8FE
:10ABE800012B002A23D010F0030F0AD010F8012BF4
:10ABF800002A1CD010F0030F03D010F8012B002AF4
:10AC080015D02DE970004FF001324FF0803350F825
:10AC1800044BA4EB020525EA04051D4000D1F6E724
:10AC2800A0F1040070BC10F8012B002AFBD1A0EBA6
:04AC38000100704760
:08AC3C00D985020000000000B0
:10AC4400A999020000000000F19502000000000034
:10AC540035A60200141E0020E99D02002C1E0020CF
:10AC640001A10200882D0020EFA602009C2D0020E7
:08AC740029A80200702D002048
:10AC7C009AB4020000000000A0B402000000000022
:10AC8C00A7B4020000000000ABB4020000000000FA
:10AC9C00B0B402000000000002AE0200000003038A
:10ACAC00D8AE02000000000001AF0200000000005E
:10ACBC0024B60200000003030DB8020000000303D9
:10ACCC0004B802000000030394B40200000000006A
:10ACDC006FB7020000000303E1B70200000003039A
:10ACEC0017B80200000003032CB802000000030395
:10ACFC0044B802000000030366AF0200000000002D
:08AD0C007CAF02000000000012
:10AD1400942400205C250020642500209C2400202D
:10AD240018000000E42B0020AC2C0020B42C0020E0
:08AD3400EC2B002018000000C8
:10AD3C00B82C0020B42C0020010000000200000000
:04AD4C000100000002
:08AD50007586020000000000FE
:10AD58001DA902000000000079A9020000000000FF
:10AD680098AD020000000000E1AD0200CC1D0020FB
:10AD7800C4AD020000000000D0AD0200D41D0020C8
:10AD880000000000000000000338FDD870470000F4
:10AD9800BD63020029640200B9630200FFFFFFFFE0
:10ADA800FFFFFFFFFFFFFFFFFFFFFFFF00000000A7
:10ADB800000000000000D601060100004D650200F9
:10ADC800B1650200FD640200756172745F6C6F67A3
:10ADD8005F6261636B656E64007274745F6C6F6749
:10ADE8005F6261636B656E64004261636B656E648C
:10ADF8007320666C7573686564006170700000008C
:10AE0800842900207F000000042A00201B5B313BBE
:10AE180033316D0025734C6F67732064726F7070E7
:10AE28006564202825642925730D0A001B5B306D95
:10AE3800002573003C25733E2025733A2000202509
:10AE480030327800202020007C002563001B5B3115
:10AE58003B33306D001B5B313B33326D001B5B3184
:10AE68003B33336D001B5B313B33346D001B5B316F
:10AE78003B33356D001B5B313B33366D001B5B315B
:10AE88003B33376D007761726E696E6700696E6675
:10AE98006F0064656275670034AE020055AE02004B
:10AEA80014AE02005DAE020065AE02006DAE020097
:10AEB80075AE02007DAE020085AE02000000000003
:10AEC800EEAE02008DAE020095AE02009AAE020010
:10AED8006170705F627574746F6E0000E01D002011
:10AEE800466174616C206572726F72005379737475
:10AEF800656D207265736574006170705F74696D4B
:10AF0800657200000100060000000000442A0020CD
:10AF1800F170020052544320696E7374616E636568
:10AF280020616C726561647920696E697469616C0D
:10AF3800697A65642E005254433A20696E697469CF
:10AF4800616C697A65642E000338FDD8704730312A
:10AF580032333435363738394142434445467077C1
:10AF6800725F6D676D7400007CAC02007CAC0200FF
:10AF780004000000736F72746C697374004E52465B
:10AF88005F53554343455353004E52465F45525213
:10AF98004F525F5356435F48414E444C45525F4DB4
:10AFA800495353494E47004E52465F4552524F52FD
:10AFB8005F534F46544445564943455F4E4F545F8F
:10AFC800454E41424C4544004E52465F4552524F11
:10AFD800525F494E5445524E414C004E52465F45D1
:10AFE80052524F525F4E4F5F4D454D004E52465F95
:10AFF8004552524F525F4E4F545F464F554E440094
:10B008004E52465F4552524F525F4E4F545F535512
:10B0180050504F52544544004E52465F4552524F8D
:10B02800525F494E56414C49445F504152414D0090
:10B038004E52465F4552524F525F494E56414C4917
:10B04800445F5354415445004E52465F4552524F57
:10B05800525F494E56414C49445F4C454E4754480F
:10B06800004E52465F4552524F525F494E56414C30
:10B0780049445F464C414753004E52465F45525241
:10B088004F525F494E56414C49445F444154410038
:10B098004E52465F4552524F525F444154415F53AE
:10B0A800495A45004E52465F4552524F525F5449E5
:10B0B8004D454F5554004E52465F4552524F525FD0
:10B0C8004E554C4C004E52465F4552524F525F46C9
:10B0D8004F5242494444454E004E52465F455252F3
:10B0E8004F525F494E56414C49445F4144445200D7
:10B0F8004E52465F4552524F525F42555359004E89
:10B1080052465F4552524F525F434F4E4E5F434F38
:10B11800554E54004E52465F4552524F525F52456B
:10B12800534F5552434553004E52465F4552524F76
:10B13800525F4D4F44554C455F4E4F545F494E4901
:10B148005449414C495A4544004E52465F45525273
:10B158004F525F4D555445585F494E49545F4641DB
:10B16800494C4544004E52465F4552524F525F4D3E
:10B17800555445585F4C4F434B5F4641494C4544F5
:10B18800004E52465F4552524F525F4D55544558F6
:10B198005F554E4C4F434B5F4641494C4544004E2A
:10B1A80052465F4552524F525F4D555445585F4382
:10B1B8004F4E445F494E49545F4641494C4544000F
:10B1C8004E52465F4552524F525F4D4F44554C4583
:10B1D8005F414C52454144595F494E495449414C9D
:10B1E800495A4544004E52465F4552524F525F53AA
:10B1F800544F524147455F46554C4C004E52465FAE
:10B208004552524F525F4150495F4E4F545F494D2E
:10B21800504C454D454E544544004E52465F4552AC
:10B22800524F525F464541545552455F4E4F545F09
:10B23800454E41424C4544004E52465F4552524F9E
:10B24800525F494F5F50454E44494E47004E524663
:10B258005F4552524F525F4452565F5457495F45BB
:10B2680052525F4F56455252554E004E52465F4518
:10B2780052524F525F4452565F5457495F4552529B
:10B288005F414E41434B004E52465F4552524F522A
:10B298005F4452565F5457495F4552525F444E418E
:10B2A800434B004E52465F4552524F525F424C4507
:10B2B8005F495053505F52585F504B545F5452553A
:10B2C8004E4341544544004E52465F4552524F52F8
:10B2D8005F424C455F495053505F4348414E4E458D
:10B2E8004C5F414C52454144595F4558495354536A
:10B2F800004E52465F4552524F525F424C455F499D
:10B308005053505F4C494E4B5F444953434F4E4E48
:10B318004543544544004E52465F4552524F525F92
:10B32800424C455F495053505F504545525F524526
:10B338004A454354454400556E6B6E6F776E2065E1
:10B3480072726F7220636F64650000000000000075
:10B3580085AF02000100000091AF0200020000006A
:10B36800AFAF020003000000D0AF020004000000ED
:10B37800E3AF020005000000F4AF02000600000081
:10B3880008B002000700000020B00200080000001A
:10B3980038B002000900000050B002000A000000A6
:10B3A80069B002000B00000081B002000C00000030
:10B3B80098B002000D000000ACB002000E000000C2
:10B3C800BEB002000F000000CDB002001000000067
:10B3D800E1B0020011000000F8B002001200000005
:10B3E80007B10200130000001CB102008000000039
:10B3F80030B102008100000051B10200820000005B
:10B408006DB102008300000089B1020084000000D1
:10B41800A7B1020085000000C8B102008600000044
:10B42800EDB102009000000004B20200910000009B
:10B4380022B202009200000040B202000082000026
:10B4480055B202000182000073B2020002820000BD
:10B458008FB2020000840000ABB202000184000039
:10B46800CFB2020002840000F9B202000384000097
:10B478001EB30200000001010100000001010000EC
:10B48800000001010000000011121314636C6F63C7
:10B498006B00434C4F434B004750494F54450050B5
:10B4A80052530055415254005541525445004C42A4
:10B4B80053207772697465204C4544207374617415
:10B4C8006520256400426C696E6B792043454E54B3
:10B4D80052414C206578616D706C6520737461729F
:10B4E8007465642E000000000338FDD87047000022
:10B4F800642D0020C42C002004000000200000005F
:10B50800010000005465726D696E616C00525454FC
:10B5180000534547474552004E6F7420656E6F755E
:10B52800676820737061636520666F722073657247
:10B5380076696365732E00496E6372656173652071
:10B54800424C455F44425F444953434F5645525924
:10B558005F4D41585F53525620746F2062652061D9
:10B56800626C6520746F2073746F7265206D6F72E2
:10B578006520736572766963657321004E6F742068
:10B58800656E6F75676820737061636520666F729A
:10B598002063686172616374657269737469637347
:10B5A800206173736F636961746564207769746877
:10B5B80020736572766963652030782530345820A9
:10B5C8002100496E63726561736520424C455F478F
:10B5D8004154545F44425F4D41585F434841525380
:10B5E80020746F2062652061626C6520746F20731F
:10B5F800746F7265206D6F72652063686172616334
:10B6080074657269737469637320666F722065610B
:10B61800636820736572766963652100626C655F93
:10B6280064625F646973630073645F626C655F671B
:10B6380061705F646174615F6C656E6774685F7583
:10B648007064617465282920287265717565737442
:10B6580029206F6E20636F6E6E656374696F6E204C
:10B66800307825782072657475726E65642025734C
:10B678002E00546865207265717565737465642061
:10B6880054582F5258207061636B6574206C656E36
:10B6980067746820697320746F6F206C6F6E672001
:10B6A80062792025752F2575206F63746574732E54
:10B6B80000546865207265717565737465642063EC
:10B6C8006F6D62696E6174696F6E206F6620545881
:10B6D80020616E64205258207061636B6574206C21
:10B6E800656E6774687320697320746F6F206C6F60
:10B6F8006E67206279202575206D6963726F7365A6
:10B70800636F6E64732E0073645F626C655F67615C
:10B718007474635F65786368616E67655F6D74757F
:10B728005F72657175657374282920726574757206
:10B738006E65642025732E0073645F626C655F67B5
:10B74800617474735F65786368616E67655F6D7453
:10B75800755F7265706C7928292072657475726ED0
:10B7680065642025732E006E72665F626C655F6784
:10B7780061747400534420474154542070726F63BD
:10B7880065647572652028256429206661696C6581
:10B7980064206F6E20636F6E6E656374696F6E20D0
:10B7A80068616E646C65202564207769746820651B
:10B7B80072726F723A203078253038582E00556EE4
:10B7C800696D706C656D656E74656420474154548D
:10B7D8002052657175657374006E72665F626C6580
:10B7E8005F677100000000001FA302000000000056
:10B7F8000000000000000000E3A20200626C655F28
:10B808007363616E00626C655F6C62735F63006E88
:10B8180072665F736468000058AD020068AD02008C
:10B82800080000006E72665F7364685F626C650092
:10B8380044AC02007CAC0200080000006E72665F37
:10B848007364685F736F63003CAC020044AC020031
:10B858000800000043000000504F53495800000002
:10B868002020202020202020206828282828202068
:10B8780020202020202020202020202020202020C0
:10B888004810101010101010101010101010101078
:10B898008484848484848484848410101010101018
:10B8A8001081818181818101010101010101010171
:10B8B8000101010101010101010101101010101025
:10B8C8001082828282828202020202020202020242
:10B8D80002020202020202020202021010101020EA
:10B8E80000070320041702010857104080000000D9
:10B8F8005CB8020060B9020074BA020053756E00A9
:10B908004D6F6E0054756500576564005468750086
:10B918004672690053617400000000004A616E00BD
:10B92800466562004D617200417072004D61790098
:10B938004A756E004A756C00417567005365700062
:10B948004F6374004E6F760044656300000000008A
:10B95800414D00504D00000098BA020094BA020010
:10B9680094BA020094BA020094BA020094BA02008F
:10B9780094BA020094BA020094BA020094BA02007F
:10B98800FFFFFFFFFFFFFFFFFFFFFFFFFFFF0000BD
:10B99800D4B9020004B9020010BA020024B90200A6
:10B9A80058B90200B8B9020068BA0200C4B9020066
:10B9B800256D2F25642F257900000000256120259D
:10B9C80062202565202554202559000053756E6492
:10B9D8006179004D6F6E64617900547565736461B7
:10B9E80079005765646E657364617900546875728F
:10B9F8007364617900467269646179005361747592
:10BA080072646179000000004A616E7561727900A4
:10BA18004665627275617279004D617263680041B2
:10BA28007072696C004D6179004A756E65004A75DF
:10BA38006C79004175677573740053657074656D32
:10BA4800626572004F63746F626572004E6F76654F
:10BA58006D62657200446563656D62657200000021
:10BA680025483A254D3A255300000000B9A902009F
:10BA7800D5A90200E1A90200EDA9020009AA020065
:10BA880015AA020021AA02002FAA02000000000045
:04BA98002E0000007C
:10BA9C0000000000002000400000000000200040DA
:10BAAC000000000000000000FF000000000000008B
:10BABC00FF0000000000000000000000000000007B
